:1000000054C068C26DC06CC06BC06AC069C068C0B3
:1000100067C066C065C064C063C062C061C060C0C4
:100020005FC05EC05DC00600FF0901A1011500268A
:10003000FF00750895020900B20201C00902220002
:1000400001010080320904000001030000000921C1
:100050000101000122160007058103080064120156
:10006000100100000008C016DF05000101020301B5
:10007000080330002E0031001803480049004400F6
:1000800020006500780061006D0070006C00650064
:10009000160343004F004B0050004F00570045002F
:1000A0004800450055000403090411241FBECFE594
:1000B000D4E0DEBFCDBF10E0A0E6B0E0EEE7F7E0B1
:1000C00002C005900D92A236B107D9F720E0A2E652
:1000D000B0E001C01D92AD39B207E1F735D34DC391
:1000E0008FCF482F20916200822F621708F4862F4D
:1000F00030916300311108C052E050936500859B38
:100100000BC051E050936600A32FB0E0AB59BF4F36
:10011000542FE42FF92F03C010926600F5CF9E2FC5
:10012000951B981718F49D919193F9CF380F309340
:100130006300281B2093620008952091620022230F
:1001400089F1322F621708F4362F40916300582F3F
:10015000A42FB0E0AB59BF4FFC018E2F851B831736
:1001600018F481918D93F9CF430F40936300231BC3
:100170002093620021110FC092B380E4892782BBD3
:1001800080916500982F9E7F9E3F29F480FF03C0D9
:1001900082B3805882BB81E090916200992319F06C
:1001A00080E0089581E00895FC019081907690327E
:1001B00059F48181877F813039F482E08093620035
:1001C000109263008FEF089580E00895CF93C62FBB
:1001D0002091720024FF0BC03091730028E8232780
:1001E00020937300FC01A4E7B0E08C2F04C02AE543
:1001F00020937200F7CF91919D938150E1F76C2F7E
:1002000084E790E063D1CC5FC0937200CF910895F2
:10021000CF93DF9360918300635067FDC8C08091E6
:100220008000CCE0D0E0C81BD109C957DF4F8091D6
:100230007F008D3209F0AAC0683009F0B6C083ECA7
:10024000809367008AE58093610010926400888142
:10025000807631F0CE01A8DF8F3F09F486C08CC0D4
:100260009A81109270008981811106C010927100EC
:1002700020E730E082E074C0853019F49093840068
:100280006CC0863009F053C08B81813041F48EE51B
:1002900090E0909382008093810082E144C082309C
:1002A00041F48CE390E0909382008093810082E29D
:1002B0003AC0833019F5911108C086EA90E0909316
:1002C00082008093810084E02EC0913019F480E98F
:1002D00090E022C0923041F488E790E09093820051
:1002E0008093810088E11FC09330E1F480E790E0C3
:1002F000909382008093810088E015C0813241F4A0
:100300008EE490E0909382008093810089E00BC09E
:10031000823241F486E290E09093820080938100E3
:1003200086E101C080E090E49093640025C08830AD
:1003300069F0893019F4909386000FC08A3049F033
:100340008B3059F48BE48093730007C026E830E0CB
:1003500002C020E730E081E003C020E730E080E029
:10036000309382002093810007C0988197FD8E8191
:1003700090E89093640007C09F81911104C09E8112
:10038000981708F4892F809360000FC08091640053
:1003900087FF0BC0CE01D1DE8F3F21F48EE1809329
:1003A000610003C08111109260001092830080915F
:1003B000610084FF55C0809160008F3F09F450C0F8
:1003C000C82F893008F0C8E08C1B809360009091A2
:1003D000670088E8892780936700CC2309F44BC025
:1003E0002091640027FF08C06C2F88E690E079DE3A
:1003F000C82F893078F523C08091810090918200C8
:1004000026FF0AC0A8E6B0E0FC012C2F34913D93F2
:1004100031962150D9F708C0DC01E8E6F0E02C2F36
:100420003D9131932150E1F72FEF2C0F30E02F5FFA
:100430003F4F820F931F90938200809381006C2F17
:1004400088E690E043D0CC5FCC3041F08FEF8093D2
:10045000600004C08FEF80936000CEE1C093610024
:1004600084E190B39C7069F48150D9F710928400B4
:1004700010927E0006C060E088E690E027D0C4E0DD
:10048000E5CFDF91CF91089585B7826085BF8BB7A7
:1004900080648BBFE2E7F0E08BE481838AE58083B0
:1004A0000895A82FB92F80E090E041E050EA6095D0
:1004B00030E009C02D9182279795879510F0842709
:1004C0009527305EC8F36F5FA8F30895EADF8D9338
:1004D0009D930895CF93CFB7CF93C395839BE9F7AF
:1004E000839B09C0839B07C0839B05C0839B03C07C
:1004F000839B01C0A3C0DF93C0918000DD27C95753
:10050000DF4F839B02C0DF91EBCF2F930F931F939D
:1005100000B32FEF03FB20F94F933F9310B34FEF3E
:10052000012703FB21F93BE031C04E7F012F10B3BF
:10053000216028C0102F4D7F2260000000B329C029
:100540004B7F2460012F000010B32BC010B3477FF6
:1005500028602AC04F7E00B320612CC04F7D10B3AD
:1005600020622FC04F7B00B3206432C0422700B30B
:1005700049934FEF0000102713FB20F910B31C70B4
:10058000C9F1297F91F2012703FB21F900B3237FF1
:1005900089F2315058F1102713FB22F910B3277E4E
:1005A00079F2012703FB23F92F7C81F200B3102796
:1005B00013FB24F92F7971F200C010B3012703FB5C
:1005C00025F92F7359F200C000B3102713FB26F949
:1005D000223040F200C010B3012703FB27F924307A
:1005E00028F64F77206810B30000F9CF10E41ABF47
:1005F000002719C03B503195C31BD04010E41ABFEF
:100600000881033CF9F00B34E9F020917E00198158
:10061000110F1213EDCF4A81441F093641F10D32FB
:1006200011F0013E29F7009385003F914F911F91F2
:100630000F912F91DF91CAB7C6FD4FCFCF91CFBF9A
:10064000CF91189520918500222379F31091830092
:10065000112369F534306AF13093830020937F00D1
:10066000109180003BE0311B3093800022C000914C
:1006700083000130E4F40AE54F7049F430916100E1
:1006800034FD19C000936100C7E6D0E018C0309176
:10069000720034FD10C000937200C3E7D0E00FC0B9
:1006A0002795A8F45150A9F4220F0000F9CF4AE58C
:1006B00003C042ED01C0432FC4E1D0E032E011B3EA
:1006C0001C60939A11BB02B320E41CE05F930127E6
:1006D00056E002BB279520F4515021F4220FF9CFA8
:1006E000012756E000003B5A02BBD0F2279528F4C0
:1006F000515029F4220F0000F9CF012756E0279529
:1007000002BB20F4515021F4220FF9CF012756E00B
:100710002991332302BB21F6037F10918400110F2E
:10072000C651D04002BB11F010937E0010E41ABFF6
:10073000086011B3137F402F437F5F9100C000C05A
:1007400002BB11BB42BB71CF8E9A96988F9A979835
:100750008D98959A99DE8C9894988B9A2FE986E5D6
:1007600099E0215080409040E1F700C000008C9A51
:0E077000949A8B9878944CDDFECFF894FFCFCE
:02077E00FF5A20
:00000001FF
