:1000000012C067C02BC02AC029C028C027C026C084
:1000100025C024C023C022C021C020C01FC01EC0D4
:100020001DC01CC01BC011241FBECFE5D4E0DEBF25
:10003000CDBF10E0A0E6B0E0E6E4F4E002C0059039
:100040000D92A836B107D9F720E0A8E6B0E001C0CC
:100050001D92A338B207E1F75AD1F3C1D1CFBC0149
:100060008898899A919A88E99AE3D7D16150710961
:10007000872F8F7080BD69B982E08BB988E18AB91A
:1000800008955D9BFECF8CB90895CF93DF93EC016B
:100090008991882311F0F5DFFBCFDF91CF9108958F
:1000A000FB01982F9F7082958F708A3010F0895CC9
:1000B00001C0805D80839A3010F0995C01C0905D32
:1000C0009183089585B7826085BF8BB780648BBFAD
:1000D0000895CF93CFB7CF93C395839BE9F7839BC5
:1000E00009C0839B07C0839B05C0839B03C0839B80
:1000F00001C0A3C0DF93C0916A00DD27C359DF4F61
:10010000839B02C0DF91EBCF2F930F931F9300B31C
:100110002FEF03FB20F94F933F9310B34FEF0127CD
:1001200003FB21F93BE031C04E7F012F10B321606A
:1001300028C0102F4D7F2260000000B329C04B7FE4
:100140002460012F000010B32BC010B3477F28603C
:100150002AC04F7E00B320612CC04F7D10B32062B7
:100160002FC04F7B00B3206432C0422700B34993B5
:100170004FEF0000102713FB20F910B31C70C9F1DA
:10018000297F91F2012703FB21F900B3237F89F234
:10019000315058F1102713FB22F910B3277E79F262
:1001A000012703FB23F92F7C81F200B3102713FBF7
:1001B00024F92F7971F200C010B3012703FB25F950
:1001C0002F7359F200C000B3102713FB26F9223019
:1001D00040F200C010B3012703FB27F9243028F6B2
:1001E0004F77206810B30000F9CF10E41ABF002742
:1001F00019C03B503195C31BD04010E41ABF088191
:10020000033CF9F00B34E9F0209168001981110FDB
:100210001213EDCF4A81441F093641F10D3211F01E
:10022000013E29F700936C003F914F911F910F9170
:100230002F91DF91CAB7C6FD4FCFCF91CFBFCF91DE
:10024000189520916C00222379F310916B001123F3
:10025000B1F43430B2F030936B0020936900109108
:100260006A003BE0311B30936A000BC0979ABFCF06
:100270002795A0F45150A1F4220F0000F9CF4AE5D0
:1002800002C042ED00C0C4E1D0E032E011B31C6016
:10029000939A11BB02B320E41CE05F93012756E060
:1002A00002BB279520F4515021F4220FF9CF0127EA
:1002B00056E000003B5A02BBD8F2279528F4515073
:1002C00029F4220F0000F9CF012756E0279502BB41
:1002D00020F4515021F4220FF9CF012756E0299143
:1002E000332302BB29F6037F00C00000000000009A
:1002F00002BB10E41ABF086011B3137F402F437F85
:100300005F9100C000C002BB11BB42BB8DCFCF9339
:10031000DF93CDB7DEB76E970FB6F894DEBF0FBE92
:10032000CDBF8E9A96988F9A979880E894E097DE42
:10033000C9DE8C9894988B9A80E690E0A6DE2FEF29
:1003400082E597E0215080409040E1F700C0000036
:100350008C9A949A8B9878941CE70AEA8DE0E82EA0
:100360009AE0F92E80916D008823E1F380916D0071
:10037000BE016F5F7F4F94DE1B8310926D008091F2
:100380006E00BE016C5F7F4F8BDE1E8300936E009C
:1003900080916F00BE01695F7F4F82DE19870093F5
:1003A0006F0080917000BE01665F7F4F79DE1C8711
:1003B0000093700080917100BE01635F7F4F70DE1B
:1003C0001F870093710080917200BE01605F7F4FB4
:1003D00067DE1A8B0093720080917300BE016D5E20
:1003E0007F4F5EDE1D8B0093730080917400BE0111
:1003F0006A5E7F4F55DE188F009374008091750000
:10040000BE01675E7F4F4CDE10927500EB8EFC8E56
:100410001D8ECE01019639DEA5CFAA1BBB1B51E173
:1004200007C0AA1FBB1FA617B70710F0A61BB70B64
:10043000881F991F5A95A9F780959095BC01CD0109
:060440000895F894FFCFBF
:0804460053746172740D0A0089
:00000001FF
