:1000000054C044C26DC06CC06BC06AC069C068C0D7
:1000100067C066C065C064C063C062C061C060C0C4
:100020005FC05EC05DC0080330002E0031001803C1
:1000300048004900440020006500780061006D0020
:1000400070006C006500160343004F004B00500029
:100050004F005700450048004500550004030904BF
:100060000600FF0901A101150026FF007508950291
:100070000900B20201C00902220001010080320918
:100080000400000103000000092101010001221603
:100090000007058103080064120110010000000838
:1000A000C016DF0500010102030111241FBECFE5C8
:1000B000D4E0DEBFCDBF10E0A0E6B0E0ECE9F7E0B1
:1000C00002C005900D92AC36B107D9F720E0ACE63E
:1000D000B0E001C01D92A63AB207E1F72AD35CC393
:1000E0008FCFBC018898899A919A88E99AE340D386
:1000F00061507109872F8F7080BD69B982E08BB91B
:1001000088E18AB908955D9BFECF8CB90895CF939D
:10011000DF93EC018991882311F0F5DFFBCFDF91AC
:10012000CF910895FB01982F9F7082958F708A3030
:1001300010F0895C01C0805D80839A3010F0995C7A
:1001400001C0905D91830895482F20916E00822F09
:10015000621708F4862F30916F00311108C052E009
:1001600050938D00859B0BC051E050938E00A32FC0
:10017000B0E0A357BF4F542FE42FF92F03C01092C4
:100180008E00F5CF9E2F951B981718F49D91919393
:10019000F9CF380F30936F00281B20936E0008951D
:1001A00020916E00222389F1322F621708F4362F36
:1001B00040916F00582FA42FB0E0A357BF4FFC0110
:1001C0008E2F851B831718F481918D93F9CF430FE0
:1001D00040936F00231B20936E0021110FC092B338
:1001E00080E4892782BB80918D00982F9E7F9E3F5F
:1001F00029F480FF03C082B3805882BB81E09091D4
:100200006E00992319F080E0089581E00895FC01C3
:1002100090819076903259F48181877F813039F4D2
:1002200082E080936E0010926F008FEF089580E05F
:10023000089585B7826085BF8BB780648BBF0895B2
:10024000CF93DF9360918C00635067FDBDC08091B8
:100250008900CCE0D0E0C81BD109C057DF4F8091A6
:1002600088008D3209F09FC0683009F0ABC083EC84
:10027000809371008AE580936100109270008881FC
:10028000807631F0CE01C3DF8F3F09F47AC081C0A0
:100290009A8110927A008981811106C010927B00A8
:1002A0002AE730E082E068C0853019F490936C0052
:1002B00060C0863009F047C08B81813041F488E905
:1002C00090E090938B0080938A0082E162C082303C
:1002D00041F486E790E090938B0080938A0082E25D
:1002E00058C0833019F5911108C08CE590E09093C7
:1002F0008B0080938A0084E04CC0913019F486E42E
:1003000090E018C0923041F48EE290E090938B0020
:1003100080938A0088E13DC09330D1F586E290E079
:1003200090938B0080938A0088E033C0823241F43E
:1003300080E690E090938B0080938A0086E129C04C
:1003400080E3E1DE25C0883069F0893019F49093AC
:100350008F000FC08A3049F08B3059F48BE48093C2
:10036000710007C02FE830E002C02AE730E081E0EA
:1003700003C02AE730E080E030938B0020938A00AE
:1003800008C0988197FD8E8190E89093700008C016
:1003900080E09F81911104C09E81981708F4892FF5
:1003A000809360000FC08091700087FF0BC0CE016A
:1003B000F7DE8F3F21F48EE18093610003C081114D
:1003C0001092600010928C008091610084FF4AC0FE
:1003D000809160008F3F09F445C0C82F893008F034
:1003E000C8E08C1B809360009091710088E8892799
:1003F00080937100CC2309F440C08091700087FF86
:1004000008C06C2F82E790E09FDEC82F893020F56E
:1004100018C020918A0030918B00A2E7B0E0F9016A
:100420009C2F84918D9331969150D9F79FEF9C0F1B
:10043000892F90E00196820F931F90938B008093F9
:100440008A006C2F82E790E070D1CC5FCC3041F015
:100450008FEF8093600004C08FEF80936000CEE147
:10046000C093610084E190B39C7069F48150D9F726
:1004700010926C0010926D0006C060E082E790E080
:1004800054D1C4E0E5CFDF91CF910895CF93CFB79A
:10049000CF93C395839BE9F7839B09C0839B07C0D8
:1004A000839B05C0839B03C0839B01C0A3C0DF93D4
:1004B000C0918900DD27C057DF4F839B02C0DF91C9
:1004C000EBCF2F930F931F9300B32FEF03FB20F974
:1004D0004F933F9310B34FEF012703FB21F93BE00C
:1004E00031C04E7F012F10B3216028C0102F4D7FE7
:1004F0002260000000B329C04B7F2460012F000060
:1005000010B32BC010B3477F28602AC04F7E00B3C2
:1005100020612CC04F7D10B320622FC04F7B00B3F1
:10052000206432C0422700B349934FEF00001027E8
:1005300013FB20F910B31C70C9F1297F91F2012738
:1005400003FB21F900B3237F89F2315058F11027C2
:1005500013FB22F910B3277E79F2012703FB23F95D
:100560002F7C81F200B3102713FB24F92F7971F24D
:1005700000C010B3012703FB25F92F7359F200C007
:1005800000B3102713FB26F9223040F200C010B34D
:10059000012703FB27F9243028F64F77206810B392
:1005A0000000F9CF10E41ABF002719C03B50319565
:1005B000C31BD04010E41ABF0881033CF9F00B3490
:1005C000E9F020916D001981110F1213EDCF4A81CE
:1005D000441F093641F10D3211F0013E29F7009315
:1005E00062003F914F911F910F912F91DF91CAB7F8
:1005F000C6FD4FCFCF91CFBFCF911895209162000C
:10060000222379F310918C00112369F534306AF1BB
:1006100030938C0020938800109189003BE0311BBF
:100620003093890022C000918C000130E4F40AE587
:100630004F7049F43091610034FD19C0009361009E
:10064000C1E7D0E018C030917C0034FD10C00093A9
:100650007C00CDE7D0E00FC02795A8F45150A9F455
:10066000220F0000F9CF4AE503C042ED01C0432F3D
:10067000C4E1D0E032E011B31C60939A11BB02B325
:1006800020E41CE05F93012756E002BB279520F48D
:10069000515021F4220FF9CF012756E000003B5AB8
:1006A00002BBD0F2279528F4515029F4220F000004
:1006B000F9CF012756E0279502BB20F4515021F4D1
:1006C000220FF9CF012756E02991332302BB21F6EF
:1006D000037F10916C00110FC651D04002BB11F086
:1006E00010936D0010E41ABF086011B3137F402F00
:1006F000437F5F9100C000C002BB11BB42BB71CF02
:10070000A82FB92F80E090E041E050EA609530E0FA
:1007100009C02D9182279795879510F084279527FA
:10072000305EC8F36F5FA8F30895EADF8D939D9361
:1007300008958E9A96988F9A97988D98959A80E8B2
:1007400094E0CFDC76DD8C9894988B9A83E690E0E9
:10075000DEDC2FEF82E597E0215080409040E1F70A
:1007600000C000008C9A949A8B98789469DDFECF33
:10077000AA1BBB1B51E107C0AA1FBB1FA617B707C7
:1007800010F0A61BB70B881F991F5A95A9F78095E3
:0C0790009095BC01CD010895F894FFCFB6
:0C079C00FF5A5A53746172740D0A000079
:00000001FF
