:1000000012C067C02BC02AC029C028C027C026C084
:1000100025C024C023C022C021C020C01FC01EC0D4
:100020001DC01CC01BC011241FBECFE5D4E0DEBF25
:10003000CDBF10E0A0E6B0E0E2E8F3E002C005903A
:100040000D92A836B107D9F720E0A8E6B0E001C0CC
:100050001D92A038B207E1F7F8D091C1D1CFBC0111
:100060008898899A919A88E99AE375D161507109C3
:10007000872F8F7080BD69B982E08BB988E18AB91A
:1000800008955D9BFECF8CB90895CF93DF93EC016B
:100090008991882311F0F5DFFBCFDF91CF9108958F
:1000A000FB01982F9F7082958F708A3010F0895CC9
:1000B00001C0805D80839A3010F0995C01C0905D32
:1000C0009183089585B7826085BF8BB780648BBFAD
:1000D0000895CF93CFB7CF93C395839BE9F7839BC5
:1000E00009C0839B07C0839B05C0839B03C0839B80
:1000F00001C0A3C0DF93D0E0CAE60000000000000A
:10010000839B02C0DF91EBCF2F930F931F9300B31C
:100110002FEF03FB20F94F933F9310B34FEF0127CD
:1001200003FB21F93BE031C04E7F012F10B321606A
:1001300028C0102F4D7F2260000000B329C04B7FE4
:100140002460012F000010B32BC010B3477F28603C
:100150002AC04F7E00B320612CC04F7D10B32062B7
:100160002FC04F7B00B3206432C0422700B34993B5
:100170004FEF0000102713FB20F910B31C70C9F1DA
:10018000297F91F2012703FB21F900B3237F89F234
:10019000315058F1102713FB22F910B3277E79F262
:1001A000012703FB23F92F7C81F200B3102713FBF7
:1001B00024F92F7971F200C010B3012703FB25F950
:1001C0002F7359F200C000B3102713FB26F9223019
:1001D00040F200C010B3012703FB27F9243028F6B2
:1001E0004F77206810B30000F9CF10E41ABF002742
:1001F00019C03B503195C31BD04010E41ABF088191
:10020000033CF9F00B34E9F0209168001981110FDB
:100210001213EDCF4A81441F0936A9F00D3211F0B7
:10022000013E29F7009369003F914F911F910F9173
:100230002F91DF91CAB7C6FD4FCFCF91CFBFCF91DE
:100240001895969AD4CF979AD2CFCF93DF93CDB704
:10025000DEB76E970FB6F894DEBF0FBECDBF8E9A95
:1002600096988F9A979880E894E0F9DE2BDF8C9827
:1002700094988B9A80E690E008DF2FEF82E597E074
:10028000215080409040E1F700C000008C9A949A81
:100290008B9878941CE70AEA8DE0E82E9AE0F92E14
:1002A00080916A008823E1F380916A00BE016F5F4C
:1002B0007F4FF6DE1B8310926A0080916B00BE01B7
:1002C0006C5F7F4FEDDE1E8300936B0080916C00AE
:1002D000BE01695F7F4FE4DE198700936C00809157
:1002E0006D00BE01665F7F4FDBDE1C8700936D00F3
:1002F00080916E00BE01635F7F4FD2DE1F87009347
:100300006E0080916F00BE01605F7F4FC9DE1A8B67
:1003100000936F0080917000BE016D5E7F4FC0DE64
:100320001D8B0093700080917100BE016A5E7F4F4B
:10033000B7DE188F0093710080917200BE01675E76
:100340007F4FAEDE10927200EB8EFC8E1D8ECE01C2
:1003500001969BDEA5CFAA1BBB1B51E107C0AA1FBC
:10036000BB1FA617B70710F0A61BB70B881F991F56
:100370005A95A9F780959095BC01CD010895F89400
:02038000FFCFAD
:0803820053746172740D0A004E
:00000001FF
