:1000000012C067C02BC02AC029C028C027C026C084
:1000100025C024C023C022C021C020C01FC01EC0D4
:100020001DC01CC01BC011241FBECFE5D4E0DEBF25
:10003000CDBF10E0A0E6B0E0EAECF2E002C005902F
:100040000D92A836B107D9F720E0A8E6B0E001C0CC
:100050001D92AE37B207E1F706D135C1D1CFBC0151
:100060008898899A919A88E99AE319D1615071091F
:10007000872F8F7080BD69B982E08BB988E18AB91A
:1000800008955D9BFECF8CB90895CF93DF93EC016B
:100090008991882311F0F5DFFBCFDF91CF9108958F
:1000A000FB01982F9F7082958F708A3010F0895CC9
:1000B00001C0805D80839A3010F0995C01C0905D32
:1000C0009183089585B7826085BF8BB780648BBFAD
:1000D0000895CF93CFB7CF93C395839BE9F7839BC5
:1000E00009C0839B07C0839B05C0839B03C0839B80
:1000F00001C09AC0DF93D0E0C8E600000000000015
:10010000839B02C0DF91EBCF2F930F931F9300B31C
:10011000000003FB20F94F933F9310B34FEF0127EB
:1001200003FB21F93BE031C04E7F012F10B321606A
:1001300028C0102F4D7F2260000000B329C04B7FE4
:100140002460012F000010B32BC010B3477F28603C
:100150002AC04F7E00B320612CC04F7D10B32062B7
:100160002FC04F7B00B3206432C0242700B32993F3
:100170004FEF0000102713FB20F910B31C70B1F1F2
:10018000297F91F2012703FB21F900B3237F89F234
:10019000315058F1102713FB22F910B3277E79F262
:1001A000012703FB23F92F7C81F200B3102713FBF7
:1001B00024F92F7971F200C010B3012703FB25F950
:1001C0002F7359F200C000B3102713FB26F9223019
:1001D00040F200C010B3012703FB27F9243028F6B2
:1001E0004F77206810B30000F9CF1FEF83991FEFFE
:1001F00082991FEF1A95D1F74F93C8563C2F4EE3C3
:100200004CB9432F15D0D0E0C8E6499111D03A95AA
:10021000E1F74F913F914F911F910F912F91DF91F6
:10022000CF91CFBFCF911895CF91CFBFCF911895D8
:100230001F93142F42954F70405D4A3308F0495F79
:100240001F70105D1A3308F0195F5D9BFECF4CB92B
:1002500000005D9BFECF1CB900005D9BFECF10E24D
:100260001CB91F9108958E9A96988F9A979880E856
:1002700094E0F5DE27DF8C9894988B9A80E690E0E6
:1002800004DF2FEF82E597E0215080409040E1F7B6
:1002900000C000008C9A949A8B987894FFCFAA1B88
:1002A000BB1B51E107C0AA1FBB1FA617B70710F061
:1002B000A61BB70B881F991F5A95A9F78095909593
:0A02C000BC01CD010895F894FFCFB2
:0802CA0053746172740D0A0007
:00000001FF
