:1000000012C05FC023C022C021C020C01FC01EC0BC
:100010001DC01CC01BC01AC019C018C017C016C014
:1000200015C014C013C011241FBECFE5D4E0DEBF3D
:10003000CDBF10E0A0E6B0E0ECE5F2E002C0059034
:100040000D92A836B107D9F7D7D006C1D9CFBC01D8
:100050008898899A919A88E99AE3EAD0615071095F
:10006000872F8F7080BD69B982E08BB988E18AB92A
:1000700008955D9BFECF8CB90895CF93DF93EC017B
:100080008991882311F0F5DFFBCFDF91CF9108959F
:10009000FB01982F9F7082958F708A3010F0895CD9
:1000A00001C0805D80839A3010F0995C01C0905D42
:1000B0009183089585B7826085BF8BB780648BBFBD
:1000C0000895CF93CFB7CF93C395839BE9F7839BD5
:1000D00009C0839B07C0839B05C0839B03C0839B90
:1000E00001C06BC000000000000000000000000024
:1000F0000000839B03C000000000E9CF2F930F9303
:100100001F9300B3000003FB20F94F933F9310B3FC
:100110000000012703FB21F900000000000000B3EC
:100120000000000000000000102713FB22F910B3AC
:1001300000000000012703FB23F90000000000B3CA
:10014000102713FB24F90000000000C010B30127A2
:1001500003FB25F90000000000C000B3102713FBCB
:1001600026F90000000000C010B3012703FB27F9A7
:1001700000000000000018E000B3369503FB37F9DB
:1001800000001A95C9F71FEF83991FEF82991FEF9F
:100190001A95D1F74F93422F409513D0432F330F29
:1001A000432740950ED04F914F913F911F910F9152
:1001B0002F91CF91CFBFCF911895CF91CFBFCF9136
:1001C00018951F93142F42954F70405D4A3308F0E5
:1001D000495F1F70105D1A3308F0195F5D9BFECFF9
:1001E0004CB900005D9BFECF1CB900005D9BFECFAB
:1001F00010E21CB91F9108958E9A96988F9A97983D
:1002000080E894E024DF56DF8C9894988B9A80E6FF
:1002100090E033DF2FEF82E597E02150804090405F
:10022000E1F700C000008C9A949A8B987894FFCFE5
:10023000AA1BBB1B51E107C0AA1FBB1FA617B7070C
:1002400010F0A61BB70B881F991F5A95A9F7809528
:0C0250009095BC01CD010895F894FFCFFB
:08025C0053746172740D0A0075
:00000001FF
