:1000000049C0B5C162C061C060C05FC05EC05DC0B4
:100010005CC05BC05AC059C058C057C056C055C01C
:1000200054C053C052C0080330002E0031001803E2
:1000300048004900440020006500780061006D0020
:1000400070006C006500160343004F004B00500029
:100050004F005700450048004500550004030904BF
:10006000090222000101008032090400000103009E
:100070000000092101010001220000070581030899
:1000800000641201100100000008C016DF05000125
:100090000102030111241FBECFE5D4E0DEBFCDBFB6
:1000A00010E0A0E6B0E0EAE7F6E002C005900D92AD
:1000B000AC36B107D9F720E0ACE6B0E001C01D9244
:1000C000A13AB207E1F7A6D2D6C29ACFBC0188986E
:1000D000899A919A88E99AE3BAD261507109872F77
:1000E0008F7080BD69B982E08BB988E18AB90895C3
:1000F0005D9BFECF8CB90895CF93DF93EC0189917E
:10010000882311F0F5DFFBCFDF91CF910895FB013C
:10011000982F9F7082958F708A3010F0895C01C093
:10012000805D80839A3010F0995C01C0905D91836E
:10013000089585B7826085BF8BB780648BBF0895B3
:10014000EF92FF921F93CF93DF93CDB7DEB72A973D
:100150000FB6F894DEBF0FBECDBF809189008350EB
:1001600087FDB4C0909185009D3209F0ADC0883004
:1001700009F0AAC0809186002CE030E0A901481B5C
:100180005109FA01E557FF4F7F0183EC80936E0020
:100190008AE580936100108110768EE3A9DF112338
:1001A00011F083E567C084E4A3DFF70112811092A8
:1001B00077008181811102C083E772C0853071F4BC
:1001C00010936C00BE016F5F7F4F812FA0DF8AE02C
:1001D0008B831C82CE0101968FDF63C0863009F0CD
:1001E0004BC084E685DFF7018381813051F481E3E0
:1001F0007FDF82E890E0909388008093870012E18F
:1002000057C0823051F482E373DF80E690E0909330
:1002100088008093870012E24BC0833051F5F701CC
:100220008281811108C08CE590E0909388008093D2
:10023000870014E03DC0813041F486E490E0909363
:1002400088008093870016E133C0823041F48EE24B
:1002500090E0909388008093870018E129C0833054
:1002600031F586E290E0909388008093870018E053
:100270001FC080E33DDF1BC0883011F483E610C04F
:10028000893029F483E434DF10938A000AC08A306D
:1002900011F489E605C08B3011F489E401C08FE3C5
:1002A00027DF87E790E0909388008093870010E035
:1002B0008DE61EDFF7018781811104C086818117D9
:1002C00008F4182F1093600010928900809161004B
:1002D00084FF37C0809160008F3F99F1182F8930DB
:1002E00008F018E0811B8093600090916E0088E810
:1002F000892780936E001123C1F0209187003091EF
:100300008800AFE6B0E0F901912F84918D9331968A
:100310009150D9F79FEF910F892F90E00196820FAE
:10032000931F9093880080938700612F8FE690E061
:100330006DD11C5F1C3019F08FEF8093600010931B
:10034000610084E190B39C7031F48150D9F7109230
:100350006C0010926D002A960FB6F894DEBF0FBEA7
:10036000CDBFDF91CF911F91FF90EF900895CF9374
:10037000CFB7CF93C395839BE9F7839B09C0839B3A
:1003800007C0839B05C0839B03C0839B01C0A3C0A0
:10039000DF93C0918600DD27C557DF4F839B02C0E6
:1003A000DF91EBCF2F930F931F9300B32FEF03FB3E
:1003B00020F94F933F9310B34FEF012703FB21F92F
:1003C0003BE031C04E7F012F10B3216028C0102FB9
:1003D0004D7F2260000000B329C04B7F2460012FB5
:1003E000000010B32BC010B3477F28602AC04F7E97
:1003F00000B320612CC04F7D10B320622FC04F7B13
:1004000000B3206432C0422700B349934FEF00008D
:10041000102713FB20F910B31C70C9F1297F91F24A
:10042000012703FB21F900B3237F89F2315058F1F2
:10043000102713FB22F910B3277E79F2012703FB63
:1004400023F92F7C81F200B3102713FB24F92F79B5
:1004500071F200C010B3012703FB25F92F7359F285
:1004600000C000B3102713FB26F9223040F200C071
:1004700010B3012703FB27F9243028F64F772068B3
:1004800010B30000F9CF10E41ABF002719C03B5089
:100490003195C31BD04010E41ABF0881033CF9F02A
:1004A0000B34E9F020916D001981110F1213EDCF7B
:1004B0004A81441F093641F10D3211F0013E29F7FE
:1004C000009362003F914F911F910F912F91DF9107
:1004D000CAB7C6FD4FCFCF91CFBFCF91189520910E
:1004E0006200222379F310918900112369F53430D9
:1004F0006AF13093890020938500109186003BE0DB
:10050000311B3093860022C0009189000130E4F451
:100510000AE54F7049F43091610034FD19C0009331
:100520006100CEE6D0E018C03091790034FD10C0F3
:1005300000937900CAE7D0E00FC02795A8F4515086
:10054000A9F4220F0000F9CF4AE503C042ED01C033
:10055000432FC4E1D0E032E011B31C60939A11BB89
:1005600002B320E41CE05F93012756E002BB27950D
:1005700020F4515021F4220FF9CF012756E000005A
:100580003B5A02BBD0F2279528F4515029F4220F90
:100590000000F9CF012756E0279502BB20F4515007
:1005A00021F4220FF9CF012756E02991332302BB12
:1005B00021F6037F10916C00110FC651D04002BB91
:1005C00011F010936D0010E41ABF086011B3137F8F
:1005D000402F437F5F9100C000C002BB11BB42BBF4
:1005E00071CFA82FB92F80E090E041E050EA6095EC
:1005F00030E009C02D9182279795879510F08427C8
:100600009527305EC8F36F5FA8F30895EADF8D93F6
:100610009D9308958E9A96988F9A979880E894E083
:1006200055DD87DD8C9894988B9A83E690E064DDA5
:100630002FEF82E597E0215080409040E1F700C025
:1006400000008C9A949A8B9878947ADDFECFAA1B3E
:10065000BB1B51E107C0AA1FBB1FA617B70710F0AD
:10066000A61BB70B881F991F5A95A9F780959095DF
:0A067000BC01CD010895F894FFCFFE
:0C067A00FF5A5A53746172740D0A00009C
:00000001FF
