:100000001BC056C134C033C032C031C030C02FC055
:100010002EC02DC02CC02BC02AC029C028C027C08C
:1000200026C025C024C01201100100000008C0161F
:10003000DF0500010000000111241FBECFE5D4E060
:10004000DEBFCDBF10E0A0E6B0E0E6EAF5E002C01A
:1000500005900D92AC36B107D9F720E0ACE6B0E0E0
:1000600001C01D92A13AB207E1F76AD29AC2C8CF85
:10007000BC018898899A919A88E99AE37ED2615066
:100080007109872F8F7080BD69B982E08BB988E1D3
:100090008AB908955D9BFECF8CB90895CF93DF9305
:1000A000EC018991882311F0F5DFFBCFDF91CF912F
:1000B0000895FB01982F9F7082958F708A3010F001
:1000C000895C01C0805D80839A3010F0995C01C02A
:1000D000905D9183089585B7826085BF8BB78064FA
:1000E0008BBF0895FF920F931F93CF93DF93CDB7EC
:1000F000DEB72A970FB6F894DEBF0FBECDBF809152
:100100008900835087FD83C0909185009D3209F05E
:100110007CC0883009F079C0809186000CE010E046
:10012000081B110905571F4F83EC80936E008AE569
:1001300080936100F80180818076F82E8EE3AADF3B
:10014000FF2011F083E537C084E4A4DFF801F280DA
:10015000109277008181811102C083E742C085300F
:1001600071F4F0926C00BE016F5F7F4F8F2DA1DFA5
:100170008AE08B831C82CE01019690DF33C08630EB
:10018000E1F484E687DFF8018381813059F481E36B
:1001900081DF86E290E0909388008093870082E17F
:1001A000F82E27C0823011F482E305C0833011F4A9
:1001B00083E301C080E36EDF1BC0883011F483E667
:1001C00010C0893029F483E465DFF0928A000AC008
:1001D0008A3011F489E605C08B3011F489E401C03E
:1001E0008FE358DF87E790E0909388008093870043
:1001F000F12C8DE64FDFF8018781811104C08681E3
:100200008F1508F4F82EF09260001092890080910A
:10021000610084FF37C0809160008F3F99F1182FF3
:10022000893008F018E0811B8093600090916E0087
:1002300088E8892780936E001123C1F02091870000
:1002400030918800AFE6B0E0F901912F84918D9351
:1002500031969150D9F79FEF910F892F90E0019639
:10026000820F931F9093880080938700612F8FE601
:1002700090E062D11C5F1C3019F08FEF809360001A
:100280001093610084E190B39C7031F48150D9F7F0
:1002900010926C0010926D002A960FB6F894DEBF93
:1002A0000FBECDBFDF91CF911F910F91FF900895A9
:1002B000CF93CFB7CF93C395839BE9F7839B09C0B7
:1002C000839B07C0839B05C0839B03C0839B01C0A6
:1002D000A3C0DF93C0918600DD27C557DF4F839B06
:1002E00002C0DF91EBCF2F930F931F9300B32FEF3B
:1002F00003FB20F94F933F9310B34FEF012703FB0C
:1003000021F93BE031C04E7F012F10B3216028C09E
:10031000102F4D7F2260000000B329C04B7F246066
:10032000012F000010B32BC010B3477F28602AC0F4
:100330004F7E00B320612CC04F7D10B320622FC0D0
:100340004F7B00B3206432C0422700B349934FEF84
:100350000000102713FB20F910B31C70C9F1297F8E
:1003600091F2012703FB21F900B3237F89F2315079
:1003700058F1102713FB22F910B3277E79F20127D9
:1003800003FB23F92F7C81F200B3102713FB24F920
:100390002F7971F200C010B3012703FB25F92F73E9
:1003A00059F200C000B3102713FB26F9223040F2A7
:1003B00000C010B3012703FB27F9243028F64F773C
:1003C000206810B30000F9CF10E41ABF002719C04D
:1003D0003B503195C31BD04010E41ABF0881033C49
:1003E000F9F00B34E9F020916D001981110F12130F
:1003F000EDCF4A81441F093641F10D3211F0013E23
:1004000029F7009362003F914F911F910F912F9117
:10041000DF91CAB7C6FD4FCFCF91CFBFCF9118950F
:1004200020916200222379F310918900112311F5A4
:10043000343012F1309389002093850010918600AA
:100440003BE0311B3093860017C0009189000130DA
:100450008CF40AE53091610034FD10C00093610016
:10046000CEE6D0E00FC02795A8F45150A9F4220F92
:100470000000F9CF4AE503C042ED01C0432FC4E1BB
:10048000D0E032E011B31C60939A11BB02B320E4B8
:100490001CE05F93012756E002BB279520F45150E2
:1004A00021F4220FF9CF012756E000003B5A02BB8E
:1004B000D0F2279528F4515029F4220F0000F9CFEB
:1004C000012756E0279502BB20F4515021F4220F5A
:1004D000F9CF012756E02991332302BB21F6037F90
:1004E00010916C00110FC651D04002BB11F0109357
:1004F0006D0010E41ABF086011B3137F402F437FD3
:100500005F9100C000C002BB11BB42BB7CCFA82FD3
:10051000B92F80E090E041E050EA609530E009C0FA
:100520002D9182279795879510F084279527305E27
:10053000C8F36F5FA8F30895EADF8D939D93089544
:100540008E9A96988F9A979880E894E091DDC3DD13
:100550008C9894988B9A83E690E0A0DD2FEF82E54B
:1005600097E0215080409040E1F700C000008C9A55
:10057000949A8B987894B6DDFECFAA1BBB1B51E1F1
:1005800007C0AA1FBB1FA617B70710F0A61BB70B03
:10059000881F991F5A95A9F780959095BC01CD01A8
:0605A0000895F894FFCF5E
:0C05A600FF5A5A53746172740D0A000071
:00000001FF
