:1000000012C05FC023C022C021C020C01FC01EC0BC
:100010001DC01CC01BC01AC019C018C017C016C014
:1000200015C014C013C011241FBECFE5D4E0DEBF3D
:10003000CDBF10E0A0E6B0E0EAEFF1E002C005902D
:100040000D92A836B107D9F7A6D0D5C0D9CFBC013B
:100050008898899A919A88E99AE3B9D06150710990
:10006000872F8F7080BD69B982E08BB988E18AB92A
:1000700008955D9BFECF8CB90895CF93DF93EC017B
:100080008991882311F0F5DFFBCFDF91CF9108959F
:10009000FB01982F9F7082958F708A3010F0895CD9
:1000A00001C0805D80839A3010F0995C01C0905D42
:1000B0009183089585B7826085BF8BB780648BBFBD
:1000C0000895CF93CFB7CF93C395839BE9F7839BD5
:1000D00009C0839B07C0839B05C0839B03C0839B90
:1000E00001C03AC000000000000000000000000055
:1000F0000000839B03C000000000E9CF2F930F9303
:100100001F9300B32FEF03FB27F917E03F93000085
:1001100000B3269503FB27F900001A95C9F718E0EC
:1001200000B3369503FB37F900001A95C9F71FEFA6
:1001300083991FEF82991FEF1A95D1F74F93422FA2
:100140000FD0432F0DD04F913F911F910F912F91C1
:10015000CF91CFBFCF911895CF91CFBFCF911895A9
:100160001F93142F42954F70405D4A3308F0495F4A
:100170001F70105D1A3308F0195F5D9BFECF4CB9FC
:1001800000005D9BFECF1CB900005D9BFECF10E21E
:100190001CB91F9108958E9A96988F9A979880E827
:1001A00094E055DF87DF8C9894988B9A80E690E0F6
:1001B00064DF2FEF82E597E0215080409040E1F727
:1001C00000C000008C9A949A8B987894FFCFAA1B59
:1001D000BB1B51E107C0AA1FBB1FA617B70710F032
:1001E000A61BB70B881F991F5A95A9F78095909564
:0A01F000BC01CD010895F894FFCF83
:0801FA0053746172740D0A00D8
:00000001FF
