:1000000012C067C02BC02AC029C028C027C026C084
:1000100025C024C023C022C021C020C01FC01EC0D4
:100020001DC01CC01BC011241FBECFE5D4E0DEBF25
:10003000CDBF10E0A0E6B0E0E4E2F4E002C005903D
:100040000D92A836B107D9F720E0A8E6B0E001C0CC
:100050001D92A038B207E1F74AD1E2C1D1CFBC016D
:100060008898899A919A88E99AE3C6D16150710972
:10007000872F8F7080BD69B982E08BB988E18AB91A
:1000800008955D9BFECF8CB90895CF93DF93EC016B
:100090008991882311F0F5DFFBCFDF91CF9108958F
:1000A000FB01982F9F7082958F708A3010F0895CC9
:1000B00001C0805D80839A3010F0995C01C0905D32
:1000C0009183089585B7826085BF8BB780648BBFAD
:1000D0000895CF93CFB7CF93C395839BE9F7839BC5
:1000E00009C0839B07C0839B05C0839B03C0839B80
:1000F00001C0A3C0DF93D0E0CAE60000000000000A
:10010000839B02C0DF91EBCF2F930F931F9300B31C
:100110002FEF03FB20F94F933F9310B34FEF0127CD
:1001200003FB21F93BE031C04E7F012F10B321606A
:1001300028C0102F4D7F2260000000B329C04B7FE4
:100140002460012F000010B32BC010B3477F28603C
:100150002AC04F7E00B320612CC04F7D10B32062B7
:100160002FC04F7B00B3206432C0422700B34993B5
:100170004FEF0000102713FB20F910B31C70C9F1DA
:10018000297F91F2012703FB21F900B3237F89F234
:10019000315058F1102713FB22F910B3277E79F262
:1001A000012703FB23F92F7C81F200B3102713FBF7
:1001B00024F92F7971F200C010B3012703FB25F950
:1001C0002F7359F200C000B3102713FB26F9223019
:1001D00040F200C010B3012703FB27F9243028F6B2
:1001E0004F77206810B30000F9CF10E41ABF002742
:1001F00019C03B503195C31BD04010E41ABF088191
:10020000033CF9F00B34E9F0209168001981110FDB
:100210001213EDCF4A81441F0936C1F00D3211F09F
:10022000013E29F7009369003F914F911F910F9173
:100230002F91DF91CAB7C6FD4FCFCF91CFBFCF91DE
:10024000189520916900222379F30BC0979ACFCF9C
:100250002795A0F45150A1F4220F0000F9CF4AE5F0
:1002600002C042ED00C0C4E1D0E032E011B31C6036
:10027000939A11BB02B320E41CE05F93012756E080
:1002800002BB279520F4515021F4220FF9CF01270A
:1002900056E000003B5A02BBD8F2279528F4515093
:1002A00029F4220F0000F9CF012756E0279502BB61
:1002B00020F4515021F4220FF9CF012756E0299163
:1002C000332302BB29F6037F00C0000000000000BA
:1002D00002BB10E41ABF086011B3137F402F437FA5
:1002E0005F9100C000C002BB11BB42BB9DCFCF934A
:1002F000DF93CDB7DEB76E970FB6F894DEBF0FBEB3
:10030000CDBF81B3806C81BB80E894E0A8DEDADEEB
:100310008C9894988B9A80E690E0B7DE2FEF82E578
:1003200097E0215080409040E1F700C000008C9A97
:10033000949A8B9878941CE70AEA8DE0E82E9AE06C
:10034000F92E80916A008823E1F380916A00BE0152
:100350006F5F7F4FA5DE1B8310926A0080916B0058
:10036000BE016C5F7F4F9CDE1E8300936B0080910B
:100370006C00BE01695F7F4F93DE198700936C00AC
:1003800080916D00BE01665F7F4F8ADE1C870093FF
:100390006D0080916E00BE01635F7F4F81DE1F871D
:1003A00000936E0080916F00BE01605F7F4F78DE2A
:1003B0001A8B00936F0080917000BE016D5E7F4FBD
:1003C0006FDE1D8B0093700080917100BE016A5E2C
:1003D0007F4F66DE188F0093710080917200BE011E
:1003E000675E7F4F5DDE10927200EB8EFC8E1D8E7D
:1003F000CE0101964ADEA5CFAA1BBB1B51E107C067
:10040000AA1FBB1FA617B70710F0A61BB70B881FA4
:10041000991F5A95A9F780959095BC01CD01089533
:04042000F894FFCF7E
:0804240053746172740D0A00AB
:00000001FF
