:1000000012C093C02BC02AC029C028C027C026C058
:1000100025C024C023C022C021C020C01FC01EC0D4
:100020001DC01CC01BC011241FBECFE5D4E0DEBF25
:10003000CDBF10E0A0E6B0E0EEECF3E002C005902A
:100040000D92AA36B107D9F720E0AAE6B0E001C0C8
:100050001D92A139B207E1F787D1B7C1D1CFBC0159
:100060008898899A919A88E99AE39BD1615071099D
:10007000872F8F7080BD69B982E08BB988E18AB91A
:1000800008955D9BFECF8CB90895CF93DF93EC016B
:100090008991882311F0F5DFFBCFDF91CF9108958F
:1000A000FB01982F9F7082958F708A3010F0895CC9
:1000B00001C0805D80839A3010F0995C01C0905D32
:1000C0009183089585B7826085BF8BB780648BBFAD
:1000D0000895CF9380917A00835087FD1AC0909144
:1000E00078009D32A1F4883091F480917900ECE0A1
:1000F000F0E0E81BF109E558FF4FC081C0768EE3C0
:10010000C0DFCC2311F083E501C084E4BADF109294
:100110007A0084E190B39C7031F48150D9F7109249
:100120006A0010926B00CF910895CF93CFB7CF9311
:10013000C395839BE9F7839B09C0839B07C0839B7F
:1001400005C0839B03C0839B01C0A3C0DF93C09104
:100150007900DD27C558DF4F839B02C0DF91EBCFCD
:100160002F930F931F9300B32FEF03FB20F94F93AF
:100170003F9310B34FEF012703FB21F93BE031C060
:100180004E7F012F10B3216028C0102F4D7F2260B9
:10019000000000B329C04B7F2460012F000010B382
:1001A0002BC010B3477F28602AC04F7E00B3206168
:1001B0002CC04F7D10B320622FC04F7B00B3206452
:1001C00032C0422700B349934FEF0000102713FBC2
:1001D00020F910B31C70C9F1297F91F2012703FBAC
:1001E00021F900B3237F89F2315058F1102713FB16
:1001F00022F910B3277E79F2012703FB23F92F7C24
:1002000081F200B3102713FB24F92F7971F200C09B
:1002100010B3012703FB25F92F7359F200C000B377
:10022000102713FB26F9223040F200C010B301273B
:1002300003FB27F9243028F64F77206810B300001D
:10024000F9CF10E41ABF002719C03B503195C31BEA
:10025000D04010E41ABF0881033CF9F00B34E9F0F8
:1002600020916B001981110F1213EDCF4A81441FA9
:10027000093641F10D3211F0013E29F7009360007B
:100280003F914F911F910F912F91DF91CAB7C6FDFA
:100290004FCFCF91CFBFCF911895209160002223EF
:1002A00079F310917A001123B1F43430B2F0309325
:1002B0007A0020937800109179003BE0311B309355
:1002C00079000BC0979ABFCF2795A8F45150A9F495
:1002D000220F0000F9CF4AE503C042ED01C0432FD1
:1002E000C4E1D0E032E011B31C60939A11BB02B3B9
:1002F00020E41CE05F93012756E002BB279520F421
:10030000515021F4220FF9CF012756E000003B5A4B
:1003100002BBD0F2279528F4515029F4220F000097
:10032000F9CF012756E0279502BB20F4515021F464
:10033000220FF9CF012756E02991332302BB21F682
:10034000037F00C000000000000002BB10E41ABFE1
:10035000086011B3137F402F437F5F9100C000C03E
:1003600002BB11BB42BB8CCF8E9A96988F9A9798FE
:1003700080E894E074DEA6DE8C9894988B9A81E6EF
:1003800090E083DE2FEF82E597E02150804090409F
:10039000E1F700C000008C9A949A8B98789499DECB
:1003A000FECFAA1BBB1B51E107C0AA1FBB1FA6178C
:1003B000B70710F0A61BB70B881F991F5A95A9F70E
:0E03C00080959095BC01CD010895F894FFCF73
:0A03CE005A53746172740D0A0000A6
:00000001FF
