:1000000012C067C02BC02AC029C028C027C026C084
:1000100025C024C023C022C021C020C01FC01EC0D4
:100020001DC01CC01BC011241FBECFE5D4E0DEBF25
:10003000CDBF10E0A0E6B0E0EEE7F2E002C0059030
:100040000D92A836B107D9F720E0A8E6B0E001C0CC
:100050001D92AE37B207E1F7E0D00FC1D1CFBC019E
:100060008898899A919A88E99AE3F3D06150710946
:10007000872F8F7080BD69B982E08BB988E18AB91A
:1000800008955D9BFECF8CB90895CF93DF93EC016B
:100090008991882311F0F5DFFBCFDF91CF9108958F
:1000A000FB01982F9F7082958F708A3010F0895CC9
:1000B00001C0805D80839A3010F0995C01C0905D32
:1000C0009183089585B7826085BF8BB780648BBFAD
:1000D0000895CF93CFB7CF93C395839BE9F7839BC5
:1000E00009C0839B07C0839B05C0839B03C0839B80
:1000F00001C074C0DF93D0E0C8E60000000000003B
:10010000839B02C0DF91EBCF2F930F931F9300B31C
:10011000000003FB20F94F933F9310B34FEF0127EB
:1001200003FB21F934E010C0242700B32993000019
:100130000000102713FB20F910B31C7089F1000098
:100140000000012703FB21F900B30000000031503B
:1001500030F1102713FB22F910B300000000012733
:1001600003FB23F90000000000B3102713FB24F960
:100170000000000000C010B3012703FB25F90000B8
:10018000000000C000B3102713FB26F90000000098
:1001900000C010B3012703FB27F90000C5CF1FEFF4
:1001A00083991FEF82991FEF1A95D1F74F934091D2
:1001B000680018D04091690015D040916A0012D0B3
:1001C00040916B000FD04F913F914F911F910F9134
:1001D0002F91DF91CF91CFBFCF911895CF91CFBF06
:1001E000CF9118951F93142F42954F70405D4A335D
:1001F00008F0495F1F70105D1A3308F0195F5D9BAE
:10020000FECF4CB900005D9BFECF1CB900005D9B8A
:10021000FECF10E21CB91F9108958E9A96988F9A7E
:10022000979880E894E01BDF4DDF8C9894988B9A28
:1002300080E690E02ADF2FEF82E597E021508040B2
:100240009040E1F700C000008C9A949A8B987894C3
:10025000FFCFAA1BBB1B51E107C0AA1FBB1FA617DC
:10026000B70710F0A61BB70B881F991F5A95A9F75F
:0E02700080959095BC01CD010895F894FFCFC4
:08027E0053746172740D0A0053
:00000001FF
